{
	"_format": "hh-sol-artifact-1",
	"contractName": "MintERC721",
	"sourceName": "contracts/MintERC721.sol",
	"abi": [
		{
			"inputs": [],
			"stateMutability": "nonpayable",
			"type": "constructor"
		},
		{
			"anonymous": false,
			"inputs": [
				{
					"indexed": true,
					"internalType": "address",
					"name": "owner",
					"type": "address"
				},
				{
					"indexed": true,
					"internalType": "address",
					"name": "approved",
					"type": "address"
				},
				{
					"indexed": true,
					"internalType": "uint256",
					"name": "tokenId",
					"type": "uint256"
				}
			],
			"name": "Approval",
			"type": "event"
		},
		{
			"anonymous": false,
			"inputs": [
				{
					"indexed": true,
					"internalType": "address",
					"name": "owner",
					"type": "address"
				},
				{
					"indexed": true,
					"internalType": "address",
					"name": "operator",
					"type": "address"
				},
				{
					"indexed": false,
					"internalType": "bool",
					"name": "approved",
					"type": "bool"
				}
			],
			"name": "ApprovalForAll",
			"type": "event"
		},
		{
			"anonymous": false,
			"inputs": [
				{
					"indexed": false,
					"internalType": "address",
					"name": "sender",
					"type": "address"
				},
				{
					"indexed": false,
					"internalType": "uint256",
					"name": "tokenId",
					"type": "uint256"
				}
			],
			"name": "NewEpicNFTMinted",
			"type": "event"
		},
		{
			"anonymous": false,
			"inputs": [
				{
					"indexed": true,
					"internalType": "address",
					"name": "previousOwner",
					"type": "address"
				},
				{
					"indexed": true,
					"internalType": "address",
					"name": "newOwner",
					"type": "address"
				}
			],
			"name": "OwnershipTransferred",
			"type": "event"
		},
		{
			"anonymous": false,
			"inputs": [
				{
					"indexed": true,
					"internalType": "address",
					"name": "from",
					"type": "address"
				},
				{
					"indexed": true,
					"internalType": "address",
					"name": "to",
					"type": "address"
				},
				{
					"indexed": true,
					"internalType": "uint256",
					"name": "tokenId",
					"type": "uint256"
				}
			],
			"name": "Transfer",
			"type": "event"
		},
		{
			"inputs": [
				{
					"internalType": "address",
					"name": "to",
					"type": "address"
				},
				{
					"internalType": "uint256",
					"name": "tokenId",
					"type": "uint256"
				}
			],
			"name": "approve",
			"outputs": [],
			"stateMutability": "nonpayable",
			"type": "function"
		},
		{
			"inputs": [
				{
					"internalType": "address",
					"name": "owner",
					"type": "address"
				}
			],
			"name": "balanceOf",
			"outputs": [
				{
					"internalType": "uint256",
					"name": "",
					"type": "uint256"
				}
			],
			"stateMutability": "view",
			"type": "function"
		},
		{
			"inputs": [
				{
					"internalType": "uint256",
					"name": "tokenId",
					"type": "uint256"
				}
			],
			"name": "getApproved",
			"outputs": [
				{
					"internalType": "address",
					"name": "",
					"type": "address"
				}
			],
			"stateMutability": "view",
			"type": "function"
		},
		{
			"inputs": [
				{
					"internalType": "address",
					"name": "owner",
					"type": "address"
				},
				{
					"internalType": "address",
					"name": "operator",
					"type": "address"
				}
			],
			"name": "isApprovedForAll",
			"outputs": [
				{
					"internalType": "bool",
					"name": "",
					"type": "bool"
				}
			],
			"stateMutability": "view",
			"type": "function"
		},
		{
			"inputs": [
				{
					"internalType": "address",
					"name": "_recipient",
					"type": "address"
				},
				{
					"internalType": "string",
					"name": "_tokenURI",
					"type": "string"
				}
			],
			"name": "mintNFT",
			"outputs": [
				{
					"internalType": "uint256",
					"name": "",
					"type": "uint256"
				}
			],
			"stateMutability": "nonpayable",
			"type": "function"
		},
		{
			"inputs": [],
			"name": "name",
			"outputs": [
				{
					"internalType": "string",
					"name": "",
					"type": "string"
				}
			],
			"stateMutability": "view",
			"type": "function"
		},
		{
			"inputs": [],
			"name": "owner",
			"outputs": [
				{
					"internalType": "address",
					"name": "",
					"type": "address"
				}
			],
			"stateMutability": "view",
			"type": "function"
		},
		{
			"inputs": [
				{
					"internalType": "uint256",
					"name": "tokenId",
					"type": "uint256"
				}
			],
			"name": "ownerOf",
			"outputs": [
				{
					"internalType": "address",
					"name": "",
					"type": "address"
				}
			],
			"stateMutability": "view",
			"type": "function"
		},
		{
			"inputs": [],
			"name": "renounceOwnership",
			"outputs": [],
			"stateMutability": "nonpayable",
			"type": "function"
		},
		{
			"inputs": [
				{
					"internalType": "address",
					"name": "from",
					"type": "address"
				},
				{
					"internalType": "address",
					"name": "to",
					"type": "address"
				},
				{
					"internalType": "uint256",
					"name": "tokenId",
					"type": "uint256"
				}
			],
			"name": "safeTransferFrom",
			"outputs": [],
			"stateMutability": "nonpayable",
			"type": "function"
		},
		{
			"inputs": [
				{
					"internalType": "address",
					"name": "from",
					"type": "address"
				},
				{
					"internalType": "address",
					"name": "to",
					"type": "address"
				},
				{
					"internalType": "uint256",
					"name": "tokenId",
					"type": "uint256"
				},
				{
					"internalType": "bytes",
					"name": "_data",
					"type": "bytes"
				}
			],
			"name": "safeTransferFrom",
			"outputs": [],
			"stateMutability": "nonpayable",
			"type": "function"
		},
		{
			"inputs": [
				{
					"internalType": "address",
					"name": "operator",
					"type": "address"
				},
				{
					"internalType": "bool",
					"name": "approved",
					"type": "bool"
				}
			],
			"name": "setApprovalForAll",
			"outputs": [],
			"stateMutability": "nonpayable",
			"type": "function"
		},
		{
			"inputs": [
				{
					"internalType": "string",
					"name": "baseURI_",
					"type": "string"
				}
			],
			"name": "setBaseURI",
			"outputs": [],
			"stateMutability": "nonpayable",
			"type": "function"
		},
		{
			"inputs": [
				{
					"internalType": "bytes4",
					"name": "interfaceId",
					"type": "bytes4"
				}
			],
			"name": "supportsInterface",
			"outputs": [
				{
					"internalType": "bool",
					"name": "",
					"type": "bool"
				}
			],
			"stateMutability": "view",
			"type": "function"
		},
		{
			"inputs": [],
			"name": "symbol",
			"outputs": [
				{
					"internalType": "string",
					"name": "",
					"type": "string"
				}
			],
			"stateMutability": "view",
			"type": "function"
		},
		{
			"inputs": [
				{
					"internalType": "uint256",
					"name": "tokenId",
					"type": "uint256"
				}
			],
			"name": "tokenURI",
			"outputs": [
				{
					"internalType": "string",
					"name": "",
					"type": "string"
				}
			],
			"stateMutability": "view",
			"type": "function"
		},
		{
			"inputs": [
				{
					"internalType": "address",
					"name": "from",
					"type": "address"
				},
				{
					"internalType": "address",
					"name": "to",
					"type": "address"
				},
				{
					"internalType": "uint256",
					"name": "tokenId",
					"type": "uint256"
				}
			],
			"name": "transferFrom",
			"outputs": [],
			"stateMutability": "nonpayable",
			"type": "function"
		},
		{
			"inputs": [
				{
					"internalType": "address",
					"name": "newOwner",
					"type": "address"
				}
			],
			"name": "transferOwnership",
			"outputs": [],
			"stateMutability": "nonpayable",
			"type": "function"
		}
	],
	"bytecode": "0x60806040523480156200001157600080fd5b506040518060400160405280600581526020017f4d794e46540000000000000000000000000000000000000000000000000000008152506040518060400160405280600381526020017f4e46540000000000000000000000000000000000000000000000000000000000815250816000908051906020019062000096929190620002bd565b508060019080519060200190620000af929190620002bd565b505050620000d2620000c66200012360201b60201c565b6200012b60201b60201c565b6200011d6040518060400160405280601e81526020017f54686973206973206d79204e465420636f6e74726163742e20576f6168210000815250620001f160201b62000ecc1760201c565b6200049a565b600033905090565b6000600660009054906101000a900473ffffffffffffffffffffffffffffffffffffffff16905081600660006101000a81548173ffffffffffffffffffffffffffffffffffffffff021916908373ffffffffffffffffffffffffffffffffffffffff1602179055508173ffffffffffffffffffffffffffffffffffffffff168173ffffffffffffffffffffffffffffffffffffffff167f8be0079c531659141344cd1fd0a4f28419497f9722a3daafe3b4186f6b6457e060405160405180910390a35050565b6200029181604051602401620002089190620003ae565b6040516020818303038152906040527f41304fac000000000000000000000000000000000000000000000000000000007bffffffffffffffffffffffffffffffffffffffffffffffffffffffff19166020820180517bffffffffffffffffffffffffffffffffffffffffffffffffffffffff83818316178352505050506200029460201b60201c565b50565b60008151905060006a636f6e736f6c652e6c6f679050602083016000808483855afa5050505050565b828054620002cb9062000424565b90600052602060002090601f016020900481019282620002ef57600085556200033b565b82601f106200030a57805160ff19168380011785556200033b565b828001600101855582156200033b579182015b828111156200033a5782518255916020019190600101906200031d565b5b5090506200034a91906200034e565b5090565b5b80821115620003695760008160009055506001016200034f565b5090565b60006200037a82620003d2565b620003868185620003dd565b935062000398818560208601620003ee565b620003a38162000489565b840191505092915050565b60006020820190508181036000830152620003ca81846200036d565b905092915050565b600081519050919050565b600082825260208201905092915050565b60005b838110156200040e578082015181840152602081019050620003f1565b838111156200041e576000848401525b50505050565b600060028204905060018216806200043d57607f821691505b602082108114156200045457620004536200045a565b5b50919050565b7f4e487b7100000000000000000000000000000000000000000000000000000000600052602260045260246000fd5b6000601f19601f8301169050919050565b61316e80620004aa6000396000f3fe608060405234801561001057600080fd5b50600436106101165760003560e01c8063715018a6116100a2578063b88d4fde11610071578063b88d4fde146102cb578063c87b56dd146102e7578063e985e9c514610317578063eacabe1414610347578063f2fde38b1461037757610116565b8063715018a6146102695780638da5cb5b1461027357806395d89b4114610291578063a22cb465146102af57610116565b806323b872dd116100e957806323b872dd146101b557806342842e0e146101d157806355f804b3146101ed5780636352211e1461020957806370a082311461023957610116565b806301ffc9a71461011b57806306fdde031461014b578063081812fc14610169578063095ea7b314610199575b600080fd5b61013560048036038101906101309190612145565b610393565b60405161014291906125d8565b60405180910390f35b610153610475565b60405161016091906125f3565b60405180910390f35b610183600480360381019061017e91906121d8565b610507565b6040516101909190612548565b60405180910390f35b6101b360048036038101906101ae9190612109565b61058c565b005b6101cf60048036038101906101ca9190611faf565b6106a4565b005b6101eb60048036038101906101e69190611faf565b610704565b005b61020760048036038101906102029190612197565b610724565b005b610223600480360381019061021e91906121d8565b6107ba565b6040516102309190612548565b60405180910390f35b610253600480360381019061024e9190611f4a565b61086c565b6040516102609190612835565b60405180910390f35b610271610924565b005b61027b6109ac565b6040516102889190612548565b60405180910390f35b6102996109d6565b6040516102a691906125f3565b60405180910390f35b6102c960048036038101906102c49190612079565b610a68565b005b6102e560048036038101906102e09190611ffe565b610a7e565b005b61030160048036038101906102fc91906121d8565b610ae0565b60405161030e91906125f3565b60405180910390f35b610331600480360381019061032c9190611f73565b610c53565b60405161033e91906125d8565b60405180910390f35b610361600480360381019061035c91906120b5565b610ce7565b60405161036e9190612835565b60405180910390f35b610391600480360381019061038c9190611f4a565b610dd4565b005b60007f80ac58cd000000000000000000000000000000000000000000000000000000007bffffffffffffffffffffffffffffffffffffffffffffffffffffffff1916827bffffffffffffffffffffffffffffffffffffffffffffffffffffffff1916148061045e57507f5b5e139f000000000000000000000000000000000000000000000000000000007bffffffffffffffffffffffffffffffffffffffffffffffffffffffff1916827bffffffffffffffffffffffffffffffffffffffffffffffffffffffff1916145b8061046e575061046d82610f65565b5b9050919050565b60606000805461048490612a8b565b80601f01602080910402602001604051908101604052809291908181526020018280546104b090612a8b565b80156104fd5780601f106104d2576101008083540402835291602001916104fd565b820191906000526020600020905b8154815290600101906020018083116104e057829003601f168201915b5050505050905090565b600061051282610fcf565b610551576040517f08c379a000000000000000000000000000000000000000000000000000000000815260040161054890612775565b60405180910390fd5b6004600083815260200190815260200160002060009054906101000a900473ffffffffffffffffffffffffffffffffffffffff169050919050565b6000610597826107ba565b90508073ffffffffffffffffffffffffffffffffffffffff168373ffffffffffffffffffffffffffffffffffffffff161415610608576040517f08c379a00000000000000000000000000000000000000000000000000000000081526004016105ff906127f5565b60405180910390fd5b8073ffffffffffffffffffffffffffffffffffffffff1661062761103b565b73ffffffffffffffffffffffffffffffffffffffff16148061065657506106558161065061103b565b610c53565b5b610695576040517f08c379a000000000000000000000000000000000000000000000000000000000815260040161068c906126f5565b60405180910390fd5b61069f8383611043565b505050565b6106b56106af61103b565b826110fc565b6106f4576040517f08c379a00000000000000000000000000000000000000000000000000000000081526004016106eb90612815565b60405180910390fd5b6106ff8383836111da565b505050565b61071f83838360405180602001604052806000815250610a7e565b505050565b61072c61103b565b73ffffffffffffffffffffffffffffffffffffffff1661074a6109ac565b73ffffffffffffffffffffffffffffffffffffffff16146107a0576040517f08c379a0000000000000000000000000000000000000000000000000000000008152600401610797906127b5565b60405180910390fd5b80600990805190602001906107b6929190611d6e565b5050565b6000806002600084815260200190815260200160002060009054906101000a900473ffffffffffffffffffffffffffffffffffffffff169050600073ffffffffffffffffffffffffffffffffffffffff168173ffffffffffffffffffffffffffffffffffffffff161415610863576040517f08c379a000000000000000000000000000000000000000000000000000000000815260040161085a90612735565b60405180910390fd5b80915050919050565b60008073ffffffffffffffffffffffffffffffffffffffff168273ffffffffffffffffffffffffffffffffffffffff1614156108dd576040517f08c379a00000000000000000000000000000000000000000000000000000000081526004016108d490612715565b60405180910390fd5b600360008373ffffffffffffffffffffffffffffffffffffffff1673ffffffffffffffffffffffffffffffffffffffff168152602001908152602001600020549050919050565b61092c61103b565b73ffffffffffffffffffffffffffffffffffffffff1661094a6109ac565b73ffffffffffffffffffffffffffffffffffffffff16146109a0576040517f08c379a0000000000000000000000000000000000000000000000000000000008152600401610997906127b5565b60405180910390fd5b6109aa6000611441565b565b6000600660009054906101000a900473ffffffffffffffffffffffffffffffffffffffff16905090565b6060600180546109e590612a8b565b80601f0160208091040260200160405190810160405280929190818152602001828054610a1190612a8b565b8015610a5e5780601f10610a3357610100808354040283529160200191610a5e565b820191906000526020600020905b815481529060010190602001808311610a4157829003601f168201915b5050505050905090565b610a7a610a7361103b565b8383611507565b5050565b610a8f610a8961103b565b836110fc565b610ace576040517f08c379a0000000000000000000000000000000000000000000000000000000008152600401610ac590612815565b60405180910390fd5b610ada84848484611674565b50505050565b6060610aeb82610fcf565b610b2a576040517f08c379a0000000000000000000000000000000000000000000000000000000008152600401610b21906127d5565b60405180910390fd5b6000600860008481526020019081526020016000208054610b4a90612a8b565b80601f0160208091040260200160405190810160405280929190818152602001828054610b7690612a8b565b8015610bc35780601f10610b9857610100808354040283529160200191610bc3565b820191906000526020600020905b815481529060010190602001808311610ba657829003601f168201915b505050505090506000610bd46116d0565b9050600081511415610bea578192505050610c4e565b600082511115610c1f578082604051602001610c07929190612524565b60405160208183030381529060405292505050610c4e565b80610c2985611762565b604051602001610c3a929190612524565b604051602081830303815290604052925050505b919050565b6000600560008473ffffffffffffffffffffffffffffffffffffffff1673ffffffffffffffffffffffffffffffffffffffff16815260200190815260200160002060008373ffffffffffffffffffffffffffffffffffffffff1673ffffffffffffffffffffffffffffffffffffffff16815260200190815260200160002060009054906101000a900460ff16905092915050565b6000610cf161103b565b73ffffffffffffffffffffffffffffffffffffffff16610d0f6109ac565b73ffffffffffffffffffffffffffffffffffffffff1614610d65576040517f08c379a0000000000000000000000000000000000000000000000000000000008152600401610d5c906127b5565b60405180910390fd5b610d6f600761190f565b6000610d7b6007611925565b9050610d878482611933565b610d918184611b0d565b7febb98688741ffa4c7589bf325de30cf7becb63de567842e1ccdb6cb949fdc82c3382604051610dc29291906125af565b60405180910390a18091505092915050565b610ddc61103b565b73ffffffffffffffffffffffffffffffffffffffff16610dfa6109ac565b73ffffffffffffffffffffffffffffffffffffffff1614610e50576040517f08c379a0000000000000000000000000000000000000000000000000000000008152600401610e47906127b5565b60405180910390fd5b600073ffffffffffffffffffffffffffffffffffffffff168173ffffffffffffffffffffffffffffffffffffffff161415610ec0576040517f08c379a0000000000000000000000000000000000000000000000000000000008152600401610eb790612635565b60405180910390fd5b610ec981611441565b50565b610f6281604051602401610ee091906125f3565b6040516020818303038152906040527f41304fac000000000000000000000000000000000000000000000000000000007bffffffffffffffffffffffffffffffffffffffffffffffffffffffff19166020820180517bffffffffffffffffffffffffffffffffffffffffffffffffffffffff8381831617835250505050611b81565b50565b60007f01ffc9a7000000000000000000000000000000000000000000000000000000007bffffffffffffffffffffffffffffffffffffffffffffffffffffffff1916827bffffffffffffffffffffffffffffffffffffffffffffffffffffffff1916149050919050565b60008073ffffffffffffffffffffffffffffffffffffffff166002600084815260200190815260200160002060009054906101000a900473ffffffffffffffffffffffffffffffffffffffff1673ffffffffffffffffffffffffffffffffffffffff1614159050919050565b600033905090565b816004600083815260200190815260200160002060006101000a81548173ffffffffffffffffffffffffffffffffffffffff021916908373ffffffffffffffffffffffffffffffffffffffff160217905550808273ffffffffffffffffffffffffffffffffffffffff166110b6836107ba565b73ffffffffffffffffffffffffffffffffffffffff167f8c5be1e5ebec7d5bd14f71427d1e84f3dd0314c0f7b2291e5b200ac8c7c3b92560405160405180910390a45050565b600061110782610fcf565b611146576040517f08c379a000000000000000000000000000000000000000000000000000000000815260040161113d906126d5565b60405180910390fd5b6000611151836107ba565b90508073ffffffffffffffffffffffffffffffffffffffff168473ffffffffffffffffffffffffffffffffffffffff16148061119357506111928185610c53565b5b806111d157508373ffffffffffffffffffffffffffffffffffffffff166111b984610507565b73ffffffffffffffffffffffffffffffffffffffff16145b91505092915050565b8273ffffffffffffffffffffffffffffffffffffffff166111fa826107ba565b73ffffffffffffffffffffffffffffffffffffffff1614611250576040517f08c379a000000000000000000000000000000000000000000000000000000000815260040161124790612655565b60405180910390fd5b600073ffffffffffffffffffffffffffffffffffffffff168273ffffffffffffffffffffffffffffffffffffffff1614156112c0576040517f08c379a00000000000000000000000000000000000000000000000000000000081526004016112b790612695565b60405180910390fd5b6112cb838383611baa565b6112d6600082611043565b6001600360008573ffffffffffffffffffffffffffffffffffffffff1673ffffffffffffffffffffffffffffffffffffffff168152602001908152602001600020600082825461132691906129a1565b925050819055506001600360008473ffffffffffffffffffffffffffffffffffffffff1673ffffffffffffffffffffffffffffffffffffffff168152602001908152602001600020600082825461137d919061291a565b92505081905550816002600083815260200190815260200160002060006101000a81548173ffffffffffffffffffffffffffffffffffffffff021916908373ffffffffffffffffffffffffffffffffffffffff160217905550808273ffffffffffffffffffffffffffffffffffffffff168473ffffffffffffffffffffffffffffffffffffffff167fddf252ad1be2c89b69c2b068fc378daa952ba7f163c4a11628f55a4df523b3ef60405160405180910390a461143c838383611baf565b505050565b6000600660009054906101000a900473ffffffffffffffffffffffffffffffffffffffff16905081600660006101000a81548173ffffffffffffffffffffffffffffffffffffffff021916908373ffffffffffffffffffffffffffffffffffffffff1602179055508173ffffffffffffffffffffffffffffffffffffffff168173ffffffffffffffffffffffffffffffffffffffff167f8be0079c531659141344cd1fd0a4f28419497f9722a3daafe3b4186f6b6457e060405160405180910390a35050565b8173ffffffffffffffffffffffffffffffffffffffff168373ffffffffffffffffffffffffffffffffffffffff161415611576576040517f08c379a000000000000000000000000000000000000000000000000000000000815260040161156d906126b5565b60405180910390fd5b80600560008573ffffffffffffffffffffffffffffffffffffffff1673ffffffffffffffffffffffffffffffffffffffff16815260200190815260200160002060008473ffffffffffffffffffffffffffffffffffffffff1673ffffffffffffffffffffffffffffffffffffffff16815260200190815260200160002060006101000a81548160ff0219169083151502179055508173ffffffffffffffffffffffffffffffffffffffff168373ffffffffffffffffffffffffffffffffffffffff167f17307eab39ab6107e8899845ad3d59bd9653f200f220920489ca2b5937696c318360405161166791906125d8565b60405180910390a3505050565b61167f8484846111da565b61168b84848484611bb4565b6116ca576040517f08c379a00000000000000000000000000000000000000000000000000000000081526004016116c190612615565b60405180910390fd5b50505050565b6060600980546116df90612a8b565b80601f016020809104026020016040519081016040528092919081815260200182805461170b90612a8b565b80156117585780601f1061172d57610100808354040283529160200191611758565b820191906000526020600020905b81548152906001019060200180831161173b57829003601f168201915b5050505050905090565b606060008214156117aa576040518060400160405280600181526020017f3000000000000000000000000000000000000000000000000000000000000000815250905061190a565b600082905060005b600082146117dc5780806117c590612aee565b915050600a826117d59190612970565b91506117b2565b60008167ffffffffffffffff81111561181e577f4e487b7100000000000000000000000000000000000000000000000000000000600052604160045260246000fd5b6040519080825280601f01601f1916602001820160405280156118505781602001600182028036833780820191505090505b5090505b600085146119035760018261186991906129a1565b9150600a856118789190612b37565b6030611884919061291a565b60f81b8183815181106118c0577f4e487b7100000000000000000000000000000000000000000000000000000000600052603260045260246000fd5b60200101907effffffffffffffffffffffffffffffffffffffffffffffffffffffffffffff1916908160001a905350600a856118fc9190612970565b9450611854565b8093505050505b919050565b6001816000016000828254019250508190555050565b600081600001549050919050565b600073ffffffffffffffffffffffffffffffffffffffff168273ffffffffffffffffffffffffffffffffffffffff1614156119a3576040517f08c379a000000000000000000000000000000000000000000000000000000000815260040161199a90612755565b60405180910390fd5b6119ac81610fcf565b156119ec576040517f08c379a00000000000000000000000000000000000000000000000000000000081526004016119e390612675565b60405180910390fd5b6119f860008383611baa565b6001600360008473ffffffffffffffffffffffffffffffffffffffff1673ffffffffffffffffffffffffffffffffffffffff1681526020019081526020016000206000828254611a48919061291a565b92505081905550816002600083815260200190815260200160002060006101000a81548173ffffffffffffffffffffffffffffffffffffffff021916908373ffffffffffffffffffffffffffffffffffffffff160217905550808273ffffffffffffffffffffffffffffffffffffffff16600073ffffffffffffffffffffffffffffffffffffffff167fddf252ad1be2c89b69c2b068fc378daa952ba7f163c4a11628f55a4df523b3ef60405160405180910390a4611b0960008383611baf565b5050565b611b1682610fcf565b611b55576040517f08c379a0000000000000000000000000000000000000000000000000000000008152600401611b4c90612795565b60405180910390fd5b80600860008481526020019081526020016000209080519060200190611b7c929190611d6e565b505050565b60008151905060006a636f6e736f6c652e6c6f679050602083016000808483855afa5050505050565b505050565b505050565b6000611bd58473ffffffffffffffffffffffffffffffffffffffff16611d4b565b15611d3e578373ffffffffffffffffffffffffffffffffffffffff1663150b7a02611bfe61103b565b8786866040518563ffffffff1660e01b8152600401611c209493929190612563565b602060405180830381600087803b158015611c3a57600080fd5b505af1925050508015611c6b57506040513d601f19601f82011682018060405250810190611c68919061216e565b60015b611cee573d8060008114611c9b576040519150601f19603f3d011682016040523d82523d6000602084013e611ca0565b606091505b50600081511415611ce6576040517f08c379a0000000000000000000000000000000000000000000000000000000008152600401611cdd90612615565b60405180910390fd5b805181602001fd5b63150b7a0260e01b7bffffffffffffffffffffffffffffffffffffffffffffffffffffffff1916817bffffffffffffffffffffffffffffffffffffffffffffffffffffffff191614915050611d43565b600190505b949350505050565b6000808273ffffffffffffffffffffffffffffffffffffffff163b119050919050565b828054611d7a90612a8b565b90600052602060002090601f016020900481019282611d9c5760008555611de3565b82601f10611db557805160ff1916838001178555611de3565b82800160010185558215611de3579182015b82811115611de2578251825591602001919060010190611dc7565b5b509050611df09190611df4565b5090565b5b80821115611e0d576000816000905550600101611df5565b5090565b6000611e24611e1f84612875565b612850565b905082815260208101848484011115611e3c57600080fd5b611e47848285612a49565b509392505050565b6000611e62611e5d846128a6565b612850565b905082815260208101848484011115611e7a57600080fd5b611e85848285612a49565b509392505050565b600081359050611e9c816130dc565b92915050565b600081359050611eb1816130f3565b92915050565b600081359050611ec68161310a565b92915050565b600081519050611edb8161310a565b92915050565b600082601f830112611ef257600080fd5b8135611f02848260208601611e11565b91505092915050565b600082601f830112611f1c57600080fd5b8135611f2c848260208601611e4f565b91505092915050565b600081359050611f4481613121565b92915050565b600060208284031215611f5c57600080fd5b6000611f6a84828501611e8d565b91505092915050565b60008060408385031215611f8657600080fd5b6000611f9485828601611e8d565b9250506020611fa585828601611e8d565b9150509250929050565b600080600060608486031215611fc457600080fd5b6000611fd286828701611e8d565b9350506020611fe386828701611e8d565b9250506040611ff486828701611f35565b9150509250925092565b6000806000806080858703121561201457600080fd5b600061202287828801611e8d565b945050602061203387828801611e8d565b935050604061204487828801611f35565b925050606085013567ffffffffffffffff81111561206157600080fd5b61206d87828801611ee1565b91505092959194509250565b6000806040838503121561208c57600080fd5b600061209a85828601611e8d565b92505060206120ab85828601611ea2565b9150509250929050565b600080604083850312156120c857600080fd5b60006120d685828601611e8d565b925050602083013567ffffffffffffffff8111156120f357600080fd5b6120ff85828601611f0b565b9150509250929050565b6000806040838503121561211c57600080fd5b600061212a85828601611e8d565b925050602061213b85828601611f35565b9150509250929050565b60006020828403121561215757600080fd5b600061216584828501611eb7565b91505092915050565b60006020828403121561218057600080fd5b600061218e84828501611ecc565b91505092915050565b6000602082840312156121a957600080fd5b600082013567ffffffffffffffff8111156121c357600080fd5b6121cf84828501611f0b565b91505092915050565b6000602082840312156121ea57600080fd5b60006121f884828501611f35565b91505092915050565b61220a816129d5565b82525050565b612219816129e7565b82525050565b600061222a826128d7565b61223481856128ed565b9350612244818560208601612a58565b61224d81612c24565b840191505092915050565b6000612263826128e2565b61226d81856128fe565b935061227d818560208601612a58565b61228681612c24565b840191505092915050565b600061229c826128e2565b6122a6818561290f565b93506122b6818560208601612a58565b80840191505092915050565b60006122cf6032836128fe565b91506122da82612c35565b604082019050919050565b60006122f26026836128fe565b91506122fd82612c84565b604082019050919050565b60006123156025836128fe565b915061232082612cd3565b604082019050919050565b6000612338601c836128fe565b915061234382612d22565b602082019050919050565b600061235b6024836128fe565b915061236682612d4b565b604082019050919050565b600061237e6019836128fe565b915061238982612d9a565b602082019050919050565b60006123a1602c836128fe565b91506123ac82612dc3565b604082019050919050565b60006123c46038836128fe565b91506123cf82612e12565b604082019050919050565b60006123e7602a836128fe565b91506123f282612e61565b604082019050919050565b600061240a6029836128fe565b915061241582612eb0565b604082019050919050565b600061242d6020836128fe565b915061243882612eff565b602082019050919050565b6000612450602c836128fe565b915061245b82612f28565b604082019050919050565b6000612473602c836128fe565b915061247e82612f77565b604082019050919050565b60006124966020836128fe565b91506124a182612fc6565b602082019050919050565b60006124b9602f836128fe565b91506124c482612fef565b604082019050919050565b60006124dc6021836128fe565b91506124e78261303e565b604082019050919050565b60006124ff6031836128fe565b915061250a8261308d565b604082019050919050565b61251e81612a3f565b82525050565b60006125308285612291565b915061253c8284612291565b91508190509392505050565b600060208201905061255d6000830184612201565b92915050565b60006080820190506125786000830187612201565b6125856020830186612201565b6125926040830185612515565b81810360608301526125a4818461221f565b905095945050505050565b60006040820190506125c46000830185612201565b6125d16020830184612515565b9392505050565b60006020820190506125ed6000830184612210565b92915050565b6000602082019050818103600083015261260d8184612258565b905092915050565b6000602082019050818103600083015261262e816122c2565b9050919050565b6000602082019050818103600083015261264e816122e5565b9050919050565b6000602082019050818103600083015261266e81612308565b9050919050565b6000602082019050818103600083015261268e8161232b565b9050919050565b600060208201905081810360008301526126ae8161234e565b9050919050565b600060208201905081810360008301526126ce81612371565b9050919050565b600060208201905081810360008301526126ee81612394565b9050919050565b6000602082019050818103600083015261270e816123b7565b9050919050565b6000602082019050818103600083015261272e816123da565b9050919050565b6000602082019050818103600083015261274e816123fd565b9050919050565b6000602082019050818103600083015261276e81612420565b9050919050565b6000602082019050818103600083015261278e81612443565b9050919050565b600060208201905081810360008301526127ae81612466565b9050919050565b600060208201905081810360008301526127ce81612489565b9050919050565b600060208201905081810360008301526127ee816124ac565b9050919050565b6000602082019050818103600083015261280e816124cf565b9050919050565b6000602082019050818103600083015261282e816124f2565b9050919050565b600060208201905061284a6000830184612515565b92915050565b600061285a61286b565b90506128668282612abd565b919050565b6000604051905090565b600067ffffffffffffffff8211156128905761288f612bf5565b5b61289982612c24565b9050602081019050919050565b600067ffffffffffffffff8211156128c1576128c0612bf5565b5b6128ca82612c24565b9050602081019050919050565b600081519050919050565b600081519050919050565b600082825260208201905092915050565b600082825260208201905092915050565b600081905092915050565b600061292582612a3f565b915061293083612a3f565b9250827fffffffffffffffffffffffffffffffffffffffffffffffffffffffffffffffff0382111561296557612964612b68565b5b828201905092915050565b600061297b82612a3f565b915061298683612a3f565b92508261299657612995612b97565b5b828204905092915050565b60006129ac82612a3f565b91506129b783612a3f565b9250828210156129ca576129c9612b68565b5b828203905092915050565b60006129e082612a1f565b9050919050565b60008115159050919050565b60007fffffffff0000000000000000000000000000000000000000000000000000000082169050919050565b600073ffffffffffffffffffffffffffffffffffffffff82169050919050565b6000819050919050565b82818337600083830152505050565b60005b83811015612a76578082015181840152602081019050612a5b565b83811115612a85576000848401525b50505050565b60006002820490506001821680612aa357607f821691505b60208210811415612ab757612ab6612bc6565b5b50919050565b612ac682612c24565b810181811067ffffffffffffffff82111715612ae557612ae4612bf5565b5b80604052505050565b6000612af982612a3f565b91507fffffffffffffffffffffffffffffffffffffffffffffffffffffffffffffffff821415612b2c57612b2b612b68565b5b600182019050919050565b6000612b4282612a3f565b9150612b4d83612a3f565b925082612b5d57612b5c612b97565b5b828206905092915050565b7f4e487b7100000000000000000000000000000000000000000000000000000000600052601160045260246000fd5b7f4e487b7100000000000000000000000000000000000000000000000000000000600052601260045260246000fd5b7f4e487b7100000000000000000000000000000000000000000000000000000000600052602260045260246000fd5b7f4e487b7100000000000000000000000000000000000000000000000000000000600052604160045260246000fd5b6000601f19601f8301169050919050565b7f4552433732313a207472616e7366657220746f206e6f6e20455243373231526560008201527f63656976657220696d706c656d656e7465720000000000000000000000000000602082015250565b7f4f776e61626c653a206e6577206f776e657220697320746865207a65726f206160008201527f6464726573730000000000000000000000000000000000000000000000000000602082015250565b7f4552433732313a207472616e736665722066726f6d20696e636f72726563742060008201527f6f776e6572000000000000000000000000000000000000000000000000000000602082015250565b7f4552433732313a20746f6b656e20616c7265616479206d696e74656400000000600082015250565b7f4552433732313a207472616e7366657220746f20746865207a65726f2061646460008201527f7265737300000000000000000000000000000000000000000000000000000000602082015250565b7f4552433732313a20617070726f766520746f2063616c6c657200000000000000600082015250565b7f4552433732313a206f70657261746f7220717565727920666f72206e6f6e657860008201527f697374656e7420746f6b656e0000000000000000000000000000000000000000602082015250565b7f4552433732313a20617070726f76652063616c6c6572206973206e6f74206f7760008201527f6e6572206e6f7220617070726f76656420666f7220616c6c0000000000000000602082015250565b7f4552433732313a2062616c616e636520717565727920666f7220746865207a6560008201527f726f206164647265737300000000000000000000000000000000000000000000602082015250565b7f4552433732313a206f776e657220717565727920666f72206e6f6e657869737460008201527f656e7420746f6b656e0000000000000000000000000000000000000000000000602082015250565b7f4552433732313a206d696e7420746f20746865207a65726f2061646472657373600082015250565b7f4552433732313a20617070726f76656420717565727920666f72206e6f6e657860008201527f697374656e7420746f6b656e0000000000000000000000000000000000000000602082015250565b7f4552433732314d657461646174613a2055524920736574206f66206e6f6e657860008201527f697374656e7420746f6b656e0000000000000000000000000000000000000000602082015250565b7f4f776e61626c653a2063616c6c6572206973206e6f7420746865206f776e6572600082015250565b7f4552433732314d657461646174613a2055524920717565727920666f72206e6f60008201527f6e6578697374656e7420746f6b656e0000000000000000000000000000000000602082015250565b7f4552433732313a20617070726f76616c20746f2063757272656e74206f776e6560008201527f7200000000000000000000000000000000000000000000000000000000000000602082015250565b7f4552433732313a207472616e736665722063616c6c6572206973206e6f74206f60008201527f776e6572206e6f7220617070726f766564000000000000000000000000000000602082015250565b6130e5816129d5565b81146130f057600080fd5b50565b6130fc816129e7565b811461310757600080fd5b50565b613113816129f3565b811461311e57600080fd5b50565b61312a81612a3f565b811461313557600080fd5b5056fea2646970667358221220afd428c6cc42f6b138d2fd4101cbae111e8a665c23e3474fe650c06551dea13e64736f6c63430008010033",
	"linkReferences": {},
	"deployedLinkReferences": {}
}